{
  "_format": "hh-sol-artifact-1",
  "contractName": "SimpleVoteRecorderWithFeatures",
  "sourceName": "contracts/SimpleVoteRecorder.sol",
  "abi": [
    {
      "inputs": [],
      "stateMutability": "nonpayable",
      "type": "constructor"
    },
    {
      "anonymous": false,
      "inputs": [
        {
          "indexed": true,
          "internalType": "uint256",
          "name": "id",
          "type": "uint256"
        },
        {
          "indexed": false,
          "internalType": "bytes32",
          "name": "data",
          "type": "bytes32"
        }
      ],
      "name": "DataArchived",
      "type": "event"
    },
    {
      "anonymous": false,
      "inputs": [
        {
          "indexed": false,
          "internalType": "uint256",
          "name": "newCount",
          "type": "uint256"
        },
        {
          "indexed": true,
          "internalType": "address",
          "name": "changedBy",
          "type": "address"
        }
      ],
      "name": "FeatureCounterChanged",
      "type": "event"
    },
    {
      "anonymous": false,
      "inputs": [
        {
          "indexed": false,
          "internalType": "string",
          "name": "newGreeting",
          "type": "string"
        }
      ],
      "name": "FeatureGreetingUpdated",
      "type": "event"
    },
    {
      "anonymous": false,
      "inputs": [
        {
          "indexed": true,
          "internalType": "address",
          "name": "voter",
          "type": "address"
        },
        {
          "indexed": false,
          "internalType": "uint256",
          "name": "timestamp",
          "type": "uint256"
        }
      ],
      "name": "VoteRecorded",
      "type": "event"
    },
    {
      "inputs": [
        {
          "internalType": "uint256",
          "name": "_id",
          "type": "uint256"
        },
        {
          "internalType": "bytes32",
          "name": "_data",
          "type": "bytes32"
        }
      ],
      "name": "archiveData",
      "outputs": [],
      "stateMutability": "nonpayable",
      "type": "function"
    },
    {
      "inputs": [],
      "name": "decrementFeatureCounter",
      "outputs": [],
      "stateMutability": "nonpayable",
      "type": "function"
    },
    {
      "inputs": [],
      "name": "featureGreeting",
      "outputs": [
        {
          "internalType": "string",
          "name": "",
          "type": "string"
        }
      ],
      "stateMutability": "view",
      "type": "function"
    },
    {
      "inputs": [],
      "name": "getFeatureCounter",
      "outputs": [
        {
          "internalType": "uint256",
          "name": "",
          "type": "uint256"
        }
      ],
      "stateMutability": "view",
      "type": "function"
    },
    {
      "inputs": [],
      "name": "getLastUpdaterAddress",
      "outputs": [
        {
          "internalType": "address",
          "name": "",
          "type": "address"
        }
      ],
      "stateMutability": "view",
      "type": "function"
    },
    {
      "inputs": [
        {
          "internalType": "uint256",
          "name": "value",
          "type": "uint256"
        }
      ],
      "name": "getProcessedValue",
      "outputs": [
        {
          "internalType": "uint256",
          "name": "",
          "type": "uint256"
        }
      ],
      "stateMutability": "view",
      "type": "function"
    },
    {
      "inputs": [],
      "name": "incrementFeatureCounter",
      "outputs": [],
      "stateMutability": "nonpayable",
      "type": "function"
    },
    {
      "inputs": [],
      "name": "isFeatureXActive",
      "outputs": [
        {
          "internalType": "bool",
          "name": "",
          "type": "bool"
        }
      ],
      "stateMutability": "view",
      "type": "function"
    },
    {
      "inputs": [],
      "name": "owner",
      "outputs": [
        {
          "internalType": "address",
          "name": "",
          "type": "address"
        }
      ],
      "stateMutability": "view",
      "type": "function"
    },
    {
      "inputs": [
        {
          "internalType": "uint256",
          "name": "a",
          "type": "uint256"
        },
        {
          "internalType": "uint256",
          "name": "b",
          "type": "uint256"
        }
      ],
      "name": "performUtilityCalculation",
      "outputs": [
        {
          "internalType": "uint256",
          "name": "sum",
          "type": "uint256"
        },
        {
          "internalType": "uint256",
          "name": "product",
          "type": "uint256"
        }
      ],
      "stateMutability": "pure",
      "type": "function"
    },
    {
      "inputs": [],
      "name": "recordVoteTransaction",
      "outputs": [],
      "stateMutability": "nonpayable",
      "type": "function"
    },
    {
      "inputs": [
        {
          "internalType": "uint256",
          "name": "_id",
          "type": "uint256"
        }
      ],
      "name": "retrieveArchivedData",
      "outputs": [
        {
          "internalType": "bytes32",
          "name": "",
          "type": "bytes32"
        }
      ],
      "stateMutability": "view",
      "type": "function"
    },
    {
      "inputs": [
        {
          "internalType": "string",
          "name": "_newGreeting",
          "type": "string"
        }
      ],
      "name": "setFeatureGreeting",
      "outputs": [],
      "stateMutability": "nonpayable",
      "type": "function"
    },
    {
      "inputs": [],
      "name": "toggleFeatureX",
      "outputs": [],
      "stateMutability": "nonpayable",
      "type": "function"
    }
  ],
  "bytecode": "0x608060405234801561001057600080fd5b50600080546001600160a01b03191633179055602a60015560408051808201909152601d81527f57656c636f6d6520746f20416476616e636564204665617475726573210000006020820152600290610069908261012b565b506003805460ff19166001179055600580546001600160a01b03191690556101ea565b634e487b7160e01b600052604160045260246000fd5b600181811c908216806100b657607f821691505b6020821081036100d657634e487b7160e01b600052602260045260246000fd5b50919050565b601f82111561012657600081815260208120601f850160051c810160208610156101035750805b601f850160051c820191505b818110156101225782815560010161010f565b5050505b505050565b81516001600160401b038111156101445761014461008c565b6101588161015284546100a2565b846100dc565b602080601f83116001811461018d57600084156101755750858301515b600019600386901b1c1916600185901b178555610122565b600085815260208120601f198616915b828110156101bc5788860151825594840194600190910190840161019d565b50858210156101da5787850151600019600388901b60f8161c191681555b5050505050600190811b01905550565b610916806101f96000396000f3fe608060405234801561001057600080fd5b50600436106100ea5760003560e01c806359e55a4f1161008c578063aa5881bf11610066578063aa5881bf146101ea578063b47914d6146101ff578063c26aacf814610207578063f60f486f1461020f57600080fd5b806359e55a4f146101a45780636f8db10c146101b75780638da5cb5b146101d757600080fd5b80633bd582b7116100c85780633bd582b7146101325780634c0df2cd1461014f5780634c8c231a14610157578063544b70a41461017f57600080fd5b8063346a353d146100ef57806334e41e4b146100f9578063362943771461010c575b600080fd5b6100f7610217565b005b6100f76101073660046105c4565b61024f565b61011f61011a366004610636565b6102ac565b6040519081526020015b60405180910390f35b60035461013f9060ff1681565b6040519015158152602001610129565b6100f76102bd565b61016a61016536600461064f565b610311565b60408051928352602083019190915201610129565b6005546001600160a01b03165b6040516001600160a01b039091168152602001610129565b6100f76101b236600461064f565b610333565b61011f6101c5366004610636565b60009081526004602052604090205490565b60005461018c906001600160a01b031681565b6101f26103ed565b6040516101299190610671565b60015461011f565b6100f761047b565b6100f76104e9565b60405142815233907f8526c3debc05fa47d452deff6098c92355df470ccfdaeaf2c357db45e4451a2c906020015b60405180910390a2565b600580546001600160a01b03191633179055600261026e82848361075e565b507f9b3626ed317d9c87f2e4804163fdb4b5068a05204b814615f109b4a7d4cda35e82826040516102a092919061081f565b60405180910390a15050565b60006102b7826105ab565b92915050565b6001541561030f57600180549060006102d583610864565b909155505060015460405190815233907f31ad49fc1e1581a8b99a68a28d621a057a3ba4762d54294837e549b9a92c920390602001610245565b565b60008061031e838561087b565b915061032a838561088e565b90509250929050565b60035460ff1661038a5760405162461bcd60e51b815260206004820181905260248201527f4665617475726520582069732063757272656e746c792064697361626c65642e60448201526064015b60405180910390fd5b600580546001600160a01b03191633179055600082815260046020526040908190208290555182907f179c577bd7c7a7e7b9166d3c9863e7c01b5f659c037d660e2d4f5260eeafa6f3906103e19084815260200190565b60405180910390a25050565b600280546103fa906106d5565b80601f0160208091040260200160405190810160405280929190818152602001828054610426906106d5565b80156104735780601f1061044857610100808354040283529160200191610473565b820191906000526020600020905b81548152906001019060200180831161045657829003601f168201915b505050505081565b6000546001600160a01b031633146104d55760405162461bcd60e51b815260206004820181905260248201527f4f6e6c79206f776e65722063616e20746f67676c65204665617475726520582e6044820152606401610381565b6003805460ff19811660ff90911615179055565b60035460ff1661053b5760405162461bcd60e51b815260206004820181905260248201527f4665617475726520582069732063757272656e746c792064697361626c65642e6044820152606401610381565b6001805490600061054b836108a5565b919050555060006001546002610561919061088e565b9050336001600160a01b03167f31ad49fc1e1581a8b99a68a28d621a057a3ba4762d54294837e549b9a92c92036001546040516105a091815260200190565b60405180910390a250565b600060026105ba83606461087b565b6102b791906108be565b600080602083850312156105d757600080fd5b823567ffffffffffffffff808211156105ef57600080fd5b818501915085601f83011261060357600080fd5b81358181111561061257600080fd5b86602082850101111561062457600080fd5b60209290920196919550909350505050565b60006020828403121561064857600080fd5b5035919050565b6000806040838503121561066257600080fd5b50508035926020909101359150565b600060208083528351808285015260005b8181101561069e57858101830151858201604001528201610682565b506000604082860101526040601f19601f8301168501019250505092915050565b634e487b7160e01b600052604160045260246000fd5b600181811c908216806106e957607f821691505b60208210810361070957634e487b7160e01b600052602260045260246000fd5b50919050565b601f82111561075957600081815260208120601f850160051c810160208610156107365750805b601f850160051c820191505b8181101561075557828155600101610742565b5050505b505050565b67ffffffffffffffff831115610776576107766106bf565b61078a8361078483546106d5565b8361070f565b6000601f8411600181146107be57600085156107a65750838201355b600019600387901b1c1916600186901b178355610818565b600083815260209020601f19861690835b828110156107ef57868501358255602094850194600190920191016107cf565b508682101561080c5760001960f88860031b161c19848701351681555b505060018560011b0183555b5050505050565b60208152816020820152818360408301376000818301604090810191909152601f909201601f19160101919050565b634e487b7160e01b600052601160045260246000fd5b6000816108735761087361084e565b506000190190565b808201808211156102b7576102b761084e565b80820281158282048414176102b7576102b761084e565b6000600182016108b7576108b761084e565b5060010190565b6000826108db57634e487b7160e01b600052601260045260246000fd5b50049056fea264697066735822122019a5cf76c6471f3f1e5a5d1c8befe8771a7fa9d56cd817afe96a24df0106d58064736f6c63430008140033",
  "linkReferences": {},
  "deployedLinkReferences": {}
}