{
  "_format": "hh-sol-artifact-1",
  "contractName": "SimpleVoteRecorder",
  "sourceName": "contracts/SimpleVoteRecorder.sol",
  "abi": [
    {
      "inputs": [],
      "stateMutability": "nonpayable",
      "type": "constructor"
    },
    {
      "anonymous": false,
      "inputs": [
        {
          "indexed": true,
          "internalType": "address",
          "name": "voter",
          "type": "address"
        },
        {
          "indexed": false,
          "internalType": "uint256",
          "name": "timestamp",
          "type": "uint256"
        }
      ],
      "name": "VoteRecorded",
      "type": "event"
    },
    {
      "inputs": [],
      "name": "owner",
      "outputs": [
        {
          "internalType": "address",
          "name": "",
          "type": "address"
        }
      ],
      "stateMutability": "view",
      "type": "function"
    },
    {
      "inputs": [],
      "name": "recordVoteTransaction",
      "outputs": [],
      "stateMutability": "nonpayable",
      "type": "function"
    }
  ],
  "bytecode": "0x608060405234801561001057600080fd5b50600080546001600160a01b0319163317905560da806100316000396000f3fe6080604052348015600f57600080fd5b506004361060325760003560e01c8063346a353d1460375780638da5cb5b14603f575b600080fd5b603d606d565b005b6000546051906001600160a01b031681565b6040516001600160a01b03909116815260200160405180910390f35b60405142815233907f8526c3debc05fa47d452deff6098c92355df470ccfdaeaf2c357db45e4451a2c9060200160405180910390a256fea26469706673582212201ead4c3c371bb322c040eda5e1c353eab7f83199a17f9c90cc17f0d2647cf49d64736f6c63430008140033",
  "linkReferences": {},
  "deployedLinkReferences": {}
}