{"contracts/SimpleVoteRecorder.sol":{"SimpleVoteRecorder":{"abi":[{"inputs":[],"stateMutability":"nonpayable","type":"constructor"},{"anonymous":false,"inputs":[{"indexed":true,"internalType":"address","name":"voter","type":"address"},{"indexed":false,"internalType":"uint256","name":"timestamp","type":"uint256"}],"name":"VoteRecorded","type":"event"},{"inputs":[],"name":"owner","outputs":[{"internalType":"address","name":"","type":"address"}],"stateMutability":"view","type":"function"},{"inputs":[],"name":"recordVoteTransaction","outputs":[],"stateMutability":"nonpayable","type":"function"}],"evm":{"bytecode":{"linkReferences":{},"object":"608060405234801561001057600080fd5b50600080546001600160a01b0319163317905560da806100316000396000f3fe6080604052348015600f57600080fd5b506004361060325760003560e01c8063346a353d1460375780638da5cb5b14603f575b600080fd5b603d606d565b005b6000546051906001600160a01b031681565b6040516001600160a01b03909116815260200160405180910390f35b60405142815233907f8526c3debc05fa47d452deff6098c92355df470ccfdaeaf2c357db45e4451a2c9060200160405180910390a256fea26469706673582212201ead4c3c371bb322c040eda5e1c353eab7f83199a17f9c90cc17f0d2647cf49d64736f6c63430008140033","opcodes":"PUSH1 0x80 PUSH1 0x40 MSTORE CALLVALUE DUP1 ISZERO PUSH2 0x10 JUMPI PUSH1 0x0 DUP1 REVERT JUMPDEST POP PUSH1 0x0 DUP1 SLOAD PUSH1 0x1 PUSH1 0x1 PUSH1 0xA0 SHL SUB NOT AND CALLER OR SWAP1 SSTORE PUSH1 0xDA DUP1 PUSH2 0x31 PUSH1 0x0 CODECOPY PUSH1 0x0 RETURN INVALID PUSH1 0x80 PUSH1 0x40 MSTORE CALLVALUE DUP1 ISZERO PUSH1 0xF JUMPI PUSH1 0x0 DUP1 REVERT JUMPDEST POP PUSH1 0x4 CALLDATASIZE LT PUSH1 0x32 JUMPI PUSH1 0x0 CALLDATALOAD PUSH1 0xE0 SHR DUP1 PUSH4 0x346A353D EQ PUSH1 0x37 JUMPI DUP1 PUSH4 0x8DA5CB5B EQ PUSH1 0x3F JUMPI JUMPDEST PUSH1 0x0 DUP1 REVERT JUMPDEST PUSH1 0x3D PUSH1 0x6D JUMP JUMPDEST STOP JUMPDEST PUSH1 0x0 SLOAD PUSH1 0x51 SWAP1 PUSH1 0x1 PUSH1 0x1 PUSH1 0xA0 SHL SUB AND DUP2 JUMP JUMPDEST PUSH1 0x40 MLOAD PUSH1 0x1 PUSH1 0x1 PUSH1 0xA0 SHL SUB SWAP1 SWAP2 AND DUP2 MSTORE PUSH1 0x20 ADD PUSH1 0x40 MLOAD DUP1 SWAP2 SUB SWAP1 RETURN JUMPDEST PUSH1 0x40 MLOAD TIMESTAMP DUP2 MSTORE CALLER SWAP1 PUSH32 0x8526C3DEBC05FA47D452DEFF6098C92355DF470CCFDAEAF2C357DB45E4451A2C SWAP1 PUSH1 0x20 ADD PUSH1 0x40 MLOAD DUP1 SWAP2 SUB SWAP1 LOG2 JUMP INVALID LOG2 PUSH5 0x6970667358 0x22 SLT KECCAK256 0x1E 0xAD 0x4C EXTCODECOPY CALLDATACOPY SHL 0xB3 0x22 0xC0 BLOCKHASH 0xED 0xA5 0xE1 0xC3 MSTORE8 0xEA 0xB7 0xF8 BALANCE SWAP10 LOG1 PUSH32 0x9C90CC17F0D2647CF49D64736F6C634300081400330000000000000000000000 "},"methodIdentifiers":{"owner()":"8da5cb5b","recordVoteTransaction()":"346a353d"}}}}}